:020000040000FA
:04000000803108281B
:100008007E1480317E10090080310A287E1020007D
:1000180080315B28FC3025009E05F3309E05CF30EB
:100028009E05FF30290094008F3025009300013091
:100038009200FE3091008F30970000309600D23049
:1000480095008F309B0001309A00FE3099000130F6
:100058002900970096019801FF3094009301200031
:100068009110803029009500080022008C018D0134
:100078008E017B3021008C00D7308D00FD308E0042
:10008800FC3023008E0017308D003F308C001D306F
:100098003D00970015309D001730A10016309B00D9
:1000A80080310E20803180316E208031080080310F
:1000B800652080318031392080310000612880310D
:1000C800082821001B08873970389B009B17FC30D3
:0600D8009B050800080072
:020000040001F9
:04000E00E4C9FFDD65
:00000001FF
