:020000040000FA
:0400000080312F28F4
:100008007E1480312000911E0A280B2828282300FE
:100018001908F0007C08233E8600870170088100DB
:100028007C08233E860087010D300106031D1D282C
:100038001E2821282000A201A20A0130F000700821
:10004800FC07200091122D280B1D2B282C282D2869
:100058000B117E100900803131288231CC22803189
:10006800B500FC01A001A101A201A301A401A50101
:10007800A601A701A801A901AA017E1020008031CC
:1000880045288231BC2280318131BA2180310B3040
:100098002000B4002630B3005D30890B5128B30B23
:1000A8005128B40B512800320000200022080319FF
:1000B8005E285F284B28000023308031E7208031FC
:1000C80078082000A1007708A00000007C08FE3E08
:1000D8002000B3003308FC007C08233E860087011B
:1000E8007A300106031D79287A2884282108F2002D
:1000F8002008F100F301F30A823118228031D02858
:100108007C08233E8600870179300106031D8D286F
:100118008E289A282108F2002008F1000230B30046
:100128003308F300823118228031D0287C08233E1E
:100138008600870174300106031DA328A428B0286F
:100148002108F2002008F1000330B3003308F3005F
:10015800823118228031D0287C08233E860087010E
:1001680061300106031DB928BA28BE2881316521EE
:100178008031D0287C08233E860087016C30010638
:10018800031DC728C828D0282108F2002008F1003C
:100198008231C5228031D0287C08303E23009A0065
:1001A8002000111ED828D928D428A2010000CD305B
:1001B800F1008230F200233082315A228031FC0172
:1001C8004B2880312F282000B200EE280130AB00E8
:1001D8002B08B20732088600870120300106031970
:1001E800F628F728EA283208860087010930010630
:1001F8000319FF280029EA28B001B101AF0132082C
:10020800860087012D300106031D0B290C291529AD
:100218000130AB002B08AF070130AB002B08B20749
:1002280043293208860087012B300106031D1D294A
:100238001E2943290130AB002B08B20743292000AF
:100248003208860087010108AB00AC013108F200D2
:100258003008F1000A30F3000030F40082313B220C
:10026800803120002B087107AD002C08723DAE00CC
:100278002D08D03EB000FF302E3DB1001E293208B7
:1002880086008701010882319222803103184D29A6
:100298004E29232920002F0803195329542960299E
:1002A8003009AB003109AC00AB0A0319AC0A2B08C2
:1002B800F7002C08F80064293108F8003008F70026
:1002C80008008430F6000330F700FA30F8000030F8
:1002D800F9000130FA000030FB0029009014901852
:1002E8007629772973297B08F2007A08F100F3014F
:1002F800F30A8231182281310230F5000430F4000B
:10030800BA30890B8529F40B8529F50B852900322C
:10031800770829000F02031D932976080E02031897
:10032800962997299F290F08F7000E08F6007B08E1
:10033800F9007A08F8000130FA070030FB3D7B0825
:10034800803AF40083307402031DAC29FF307A022E
:10035800031CAF29B02971297908F2007808F10047
:10036800F301F30A823118228131080022008C013E
:100378008D018E017B3021008C00D7308D008030BC
:100388008E000C3023008E008D010F308C001D3044
:100398003D00970015309D001730A10016309B00D6
:1003A8002430A60017303C00BD001630BE008B1765
:1003B8000B178131ED2181318231CE228131823199
:1003C800772281318231A42281318231B122813177
:1003D8000800FC3025009E05F3309E05CF309E05B1
:1003E800FF30290094008F302500930002309200DE
:1003F800263091008F309700023096002630950005
:100408008F309B0002309A00263099000130290075
:10041800970096019801FF309400930120009110F5
:1004280080302900950008007303031D1C2A1D2A2B
:10043800232A720825009200710891003A2A023096
:100448007306031D282A292A2F2A720825009600D8
:10045800710895003A2A03307306031D342A352A99
:100468003A2A720825009A00710899000800F501D7
:10047800F601711C402A412A452A7308F5077408B9
:10048800F63D0130F335F40D890B462A0130F2367A
:10049800F10C890B4B2A71087204031D542A552A42
:1004A8003D2A7608F2007508F1000800F400740887
:1004B800F3007308F500682A0130F3007308F507A4
:1004C8000130F1070030F23D750886008701710898
:1004D8008400720885000008C03F8908031D752A3A
:1004E800762A602A080023009E169D171E121D16E4
:1004F8009F0190309D0020309E0000309C003330DA
:100508009B00210091160E138E17323023009A009B
:100518002000111E902A912A8C2A0800F200F1016D
:100528003A3072020318992A9A2AA22A30307202A3
:10053800031C9F2AA02AA22AF101F10A710C0800C3
:1005480021000C11A0302B008E00FA30F100003091
:10055800F2008231C5228231080021000C14E030FB
:1005680029009100900124008C0129001014080032
:1005780021001B08873970389B009B17FC309B05AE
:10058800080072082B00900071088F000D140800F5
:060598000D3400340800E0
:020000040001F9
:04000E00E4C9FFDD65
:00000001FF
