:020000040000FA
:0400000080312F28F4
:100008007E1480312000911E0A280B2828282300FE
:100018001908F0007C08233E8600870170088100DB
:100028007C08233E860087010D300106031D1D282C
:100038001E2821282000A201A20A0130F000700821
:10004800FC07200091122D280B1D2B282C282D2869
:100058000B117E100900803131288231E62280316F
:10006800B400FC01A001A101A201A301A401A50102
:10007800A601A701A801A901AA017E1020008031CC
:1000880045288231D522803182312B2280312000CF
:1000980022080319502851284B28000023308031AA
:1000A800D720803178082000A1007708A000000040
:1000B8007C08FE3E2000B3003308FC007C08233E89
:1000C800860087017A300106031D6B286C28762884
:1000D8002108F2002008F100F301F30A82315422CA
:1000E8008031C0287C08233E8600870179300106CC
:1000F800031D7F2880288C282108F2002008F100A1
:100108000230B3003308F300823154228031C02812
:100118007C08233E8600870161300106031D95286F
:1001280096289A288131B5218031C0287C08233E41
:10013800860087016C300106031DA328A428C02867
:10014800FF30F7000330F8002108F2002008F10022
:100158001F30F3000030F4008231772280317208BA
:10016800FA007108F90081315521803178082000A2
:10017800A1007708A000C0287C08303E23009A0020
:100188002000111EC828C928C428A2010000E73091
:10019800F1008230F2002330823196228031FC0156
:1001A8004B2880312F282000B200DE280130AB0018
:1001B8002B08B20732088600870120300106031990
:1001C800E628E728DA283208860087010930010680
:1001D8000319EF28F028DA28B001B101AF0132087D
:1001E800860087012D300106031DFB28FC28052900
:1001F8000130AB002B08AF070130AB002B08B2076A
:1002080033293208860087012B300106031D0D298A
:100218000E2933290130AB002B08B20733292000FF
:100228003208860087010108AB00AC013108F200F2
:100238003008F1000A30F3000030F40082317722F0
:10024800803120002B087107AD002C08723DAE00EC
:100258002D08D03EB000FF302E3DB1000E293208E7
:100268008600870101088231B322803103183D29B5
:100278003E29132920002F0803194329442950290E
:100288003009AB003109AC00AB0A0319AC0A2B08E2
:10029800F7002C08F80054293108F8003008F70056
:1002A80008002000AC01F81F5A295B296229F709C8
:1002B800F809F70A0319F80AAC01AC0AFA1F65290C
:1002C80066296F29F909FA09F90A0319FA0A0130A6
:1002D800FB007B08AC06AD01AE0177087804031972
:1002E80076297729A629AB01AB0A83290130F7358E
:1002F800F80D890B7B290130FB007B08AB07F81F41
:10030800862987297A290130AD35AE0D890B8829D0
:1003180078087A02031D922977087902031C952927
:1003280096299B297708F9027808FA3B2D140130A1
:10033800F836F70C890B9C290130AB02031DA5295F
:10034800A62987292C080319AA29AB29B029AD09A0
:10035800AE09AD0A0319AE0A2E08F8002D08F700F9
:1003680008008430F5000330F600FA30F70000305A
:10037800F8000130F9000030FA007A08F200790834
:10038800F100F301F30A8231542281316830F4001C
:10039800E430890BCD29F40BCD29003276082900E9
:1003A8000F02031DD92975080E020318DC29DD295F
:1003B800E5290F08F6000E08F5007A08F800790814
:1003C800F7000130F9070030FA3D7A08803AF40066
:1003D80081307402031DF229F4307902031CF529D7
:1003E800F629C1297808F2007708F100F301F30A29
:1003F8008231542281310800FC3025009E05F330FB
:100408009E05CF309E05FF30290094008F302500CF
:10041800930001309200FE3091008F309700003039
:100428009600D23095008F309B0001309A00FE3044
:10043800990001302900970096019801FF30940037
:1004480093012000911080302900950008002200B7
:100458008C018D018E017B3021008C00D7308D00FE
:10046800FD308E000C3023008E008D010F308C0083
:100478001D303D00970015309D001730A100163043
:100488009B008B170B178231002282318231E822C0
:1004980082318231C52282318231DE2282310800E6
:1004A8007303031D582A592A5F2A720825009200EF
:1004B80071089100762A02307306031D642A652AA2
:1004C8006B2A72082500960071089500762A033079
:1004D8007306031D702A712A762A720825009A006D
:1004E800710899000800F501F601711C7C2A7D2A23
:1004F800812A7308F5077408F63D0130F335F40DC9
:10050800890B822A0130F236F10C890B872A71088F
:100518007204031D902A912A792A7608F200750838
:10052800F1000800F4007408F3007308F500A42A29
:100538000130F3007308F5070130F1070030F23D90
:100548007508860087017108840072088500000814
:10055800C03F8908031DB12AB22A9C2A0800F2006C
:10056800F1013A3072020318BA2ABB2AC32A303082
:100578007202031CC02AC12AC32AF101F10A710CB4
:10058800080023009E169D171E121E151D16CF303B
:100598009B00210091160E138E1724303D00A600F3
:1005A800080021001B08873970389B009B17FC3016
:1005B8009B050800A0302B008E0001309000F4301D
:0A05C8008F0008000D340034080015
:020000040001F9
:04000E00E4C9FFDD65
:00000001FF
